{
  "contractName": "IDOPublic",
  "abi": [
    {
      "inputs": [
        {
          "internalType": "address",
          "name": "_deposit",
          "type": "address"
        }
      ],
      "stateMutability": "nonpayable",
      "type": "constructor"
    },
    {
      "inputs": [],
      "name": "canBuy",
      "outputs": [
        {
          "internalType": "uint256",
          "name": "",
          "type": "uint256"
        }
      ],
      "stateMutability": "view",
      "type": "function",
      "constant": true
    },
    {
      "inputs": [
        {
          "internalType": "uint256",
          "name": "",
          "type": "uint256"
        }
      ],
      "name": "contributor",
      "outputs": [
        {
          "internalType": "address",
          "name": "",
          "type": "address"
        }
      ],
      "stateMutability": "view",
      "type": "function",
      "constant": true
    },
    {
      "inputs": [],
      "name": "deposit",
      "outputs": [
        {
          "internalType": "address",
          "name": "",
          "type": "address"
        }
      ],
      "stateMutability": "view",
      "type": "function",
      "constant": true
    },
    {
      "inputs": [],
      "name": "hardcap",
      "outputs": [
        {
          "internalType": "uint256",
          "name": "",
          "type": "uint256"
        }
      ],
      "stateMutability": "view",
      "type": "function",
      "constant": true
    },
    {
      "inputs": [],
      "name": "manager",
      "outputs": [
        {
          "internalType": "address",
          "name": "",
          "type": "address"
        }
      ],
      "stateMutability": "view",
      "type": "function",
      "constant": true
    },
    {
      "inputs": [],
      "name": "raiseAmount",
      "outputs": [
        {
          "internalType": "uint256",
          "name": "",
          "type": "uint256"
        }
      ],
      "stateMutability": "view",
      "type": "function",
      "constant": true
    },
    {
      "inputs": [],
      "name": "changeStatus",
      "outputs": [
        {
          "internalType": "bool",
          "name": "",
          "type": "bool"
        }
      ],
      "stateMutability": "nonpayable",
      "type": "function"
    },
    {
      "inputs": [],
      "name": "enter",
      "outputs": [
        {
          "internalType": "bool",
          "name": "",
          "type": "bool"
        }
      ],
      "stateMutability": "payable",
      "type": "function",
      "payable": true
    },
    {
      "inputs": [],
      "name": "getContributor",
      "outputs": [
        {
          "internalType": "address[]",
          "name": "",
          "type": "address[]"
        }
      ],
      "stateMutability": "view",
      "type": "function",
      "constant": true
    }
  ],
  "bytecode": "0x6080604052681043561a88293000006003556000600455600060055534801561002757600080fd5b50604051610b41380380610b41833981810160405281019061004991906100e6565b33600160006101000a81548173ffffffffffffffffffffffffffffffffffffffff021916908373ffffffffffffffffffffffffffffffffffffffff16021790555080600260006101000a81548173ffffffffffffffffffffffffffffffffffffffff021916908373ffffffffffffffffffffffffffffffffffffffff16021790555050610158565b6000815190506100e081610141565b92915050565b6000602082840312156100f857600080fd5b6000610106848285016100d1565b91505092915050565b600061011a82610121565b9050919050565b600073ffffffffffffffffffffffffffffffffffffffff82169050919050565b61014a8161010f565b811461015557600080fd5b50565b6109da806101676000396000f3fe6080604052600436106100865760003560e01c8063d0e30db011610059578063d0e30db014610149578063db638f0b14610174578063e97dcb621461019f578063f0499796146101bd578063ff65226c146101e857610086565b8063085634ec1461008b578063481c6a75146100b657806365158b3b146100e1578063b071cbe61461011e575b600080fd5b34801561009757600080fd5b506100a0610213565b6040516100ad91906107e0565b60405180910390f35b3480156100c257600080fd5b506100cb6102a3565b6040516100d891906107a3565b60405180910390f35b3480156100ed57600080fd5b5061010860048036038101906101039190610608565b6102c9565b60405161011591906107a3565b60405180910390f35b34801561012a57600080fd5b50610133610308565b604051610140919061085b565b60405180910390f35b34801561015557600080fd5b5061015e61030e565b60405161016b91906107a3565b60405180910390f35b34801561018057600080fd5b50610189610334565b604051610196919061085b565b60405180910390f35b6101a761033a565b6040516101b491906107e0565b60405180910390f35b3480156101c957600080fd5b506101d2610505565b6040516101df91906107be565b60405180910390f35b3480156101f457600080fd5b506101fd6105ed565b60405161020a919061085b565b60405180910390f35b6000600160009054906101000a900473ffffffffffffffffffffffffffffffffffffffff1673ffffffffffffffffffffffffffffffffffffffff163373ffffffffffffffffffffffffffffffffffffffff161461026f57600080fd5b6001600554141561028757600060058190555061029c565b6000600554141561029b5760016005819055505b5b6001905090565b600160009054906101000a900473ffffffffffffffffffffffffffffffffffffffff1681565b600081815481106102d957600080fd5b906000526020600020016000915054906101000a900473ffffffffffffffffffffffffffffffffffffffff1681565b60035481565b600260009054906101000a900473ffffffffffffffffffffffffffffffffffffffff1681565b60045481565b6000600160055414610381576040517f08c379a00000000000000000000000000000000000000000000000000000000081526004016103789061083b565b60405180910390fd5b600354600454106103c7576040517f08c379a00000000000000000000000000000000000000000000000000000000081526004016103be9061081b565b60405180910390fd5b670de0b6b3a76400003414610411576040517f08c379a0000000000000000000000000000000000000000000000000000000008152600401610408906107fb565b60405180910390fd5b6000339080600181540180825580915050600190039060005260206000200160009091909190916101000a81548173ffffffffffffffffffffffffffffffffffffffff021916908373ffffffffffffffffffffffffffffffffffffffff160217905550600260009054906101000a900473ffffffffffffffffffffffffffffffffffffffff1673ffffffffffffffffffffffffffffffffffffffff166108fc349081150290604051600060405180830381858888f193505050501580156104dc573d6000803e3d6000fd5b50670de0b6b3a7640000600460008282546104f791906108c0565b925050819055506001905090565b6060600160009054906101000a900473ffffffffffffffffffffffffffffffffffffffff1673ffffffffffffffffffffffffffffffffffffffff163373ffffffffffffffffffffffffffffffffffffffff161461056157600080fd5b60008054806020026020016040519081016040528092919081815260200182805480156105e357602002820191906000526020600020905b8160009054906101000a900473ffffffffffffffffffffffffffffffffffffffff1673ffffffffffffffffffffffffffffffffffffffff1681526020019060010190808311610599575b5050505050905090565b60055481565b6000813590506106028161098d565b92915050565b60006020828403121561061a57600080fd5b6000610628848285016105f3565b91505092915050565b600061063d8383610649565b60208301905092915050565b61065281610916565b82525050565b61066181610916565b82525050565b600061067282610886565b61067c818561089e565b935061068783610876565b8060005b838110156106b857815161069f8882610631565b97506106aa83610891565b92505060018101905061068b565b5085935050505092915050565b6106ce81610928565b82525050565b60006106e16012836108af565b91507f446f6e277420656e6f756768203120424e4200000000000000000000000000006000830152602082019050919050565b6000610721600f836108af565b91507f456e6f75676820686172646361702000000000000000000000000000000000006000830152602082019050919050565b60006107616009836108af565b91507f43616e27742062757900000000000000000000000000000000000000000000006000830152602082019050919050565b61079d81610954565b82525050565b60006020820190506107b86000830184610658565b92915050565b600060208201905081810360008301526107d88184610667565b905092915050565b60006020820190506107f560008301846106c5565b92915050565b60006020820190508181036000830152610814816106d4565b9050919050565b6000602082019050818103600083015261083481610714565b9050919050565b6000602082019050818103600083015261085481610754565b9050919050565b60006020820190506108706000830184610794565b92915050565b6000819050602082019050919050565b600081519050919050565b6000602082019050919050565b600082825260208201905092915050565b600082825260208201905092915050565b60006108cb82610954565b91506108d683610954565b9250827fffffffffffffffffffffffffffffffffffffffffffffffffffffffffffffffff0382111561090b5761090a61095e565b5b828201905092915050565b600061092182610934565b9050919050565b60008115159050919050565b600073ffffffffffffffffffffffffffffffffffffffff82169050919050565b6000819050919050565b7f4e487b7100000000000000000000000000000000000000000000000000000000600052601160045260246000fd5b61099681610954565b81146109a157600080fd5b5056fea2646970667358221220b69d6869f15b0d356cc55d68eecf67aa924ea46100df90bd487eb5153bd6c80a64736f6c63430008000033",
  "immutableReferences": {},
  "source": "//SPDX-License-Identifier: GPL-3.0\r\n\r\npragma solidity  ^0.8.0;\r\n\r\ncontract IDOPublic{\r\n    address [] public contributor;\r\n    address public manager ; \r\n    address public deposit;\r\n\r\n    uint public hardcap = 300 ether;\r\n    uint public raiseAmount =0;\r\n\r\n    uint public canBuy =0;\r\n\r\n    constructor(address _deposit )\r\n    {\r\n        manager = msg.sender;\r\n        deposit = _deposit;      \r\n    }\r\n\r\n    modifier onlyAdmin(){\r\n        require(msg.sender == manager);\r\n        _;\r\n    }\r\n\r\n    function changeStatus() public onlyAdmin returns(bool)\r\n    {\r\n        if(canBuy ==1) canBuy =0;\r\n        else if(canBuy ==0) canBuy =1;\r\n        return true;\r\n    }\r\n\r\n    function enter() public payable returns(bool)\r\n    {\r\n        require(canBuy ==1 ,\"Can't buy\");\r\n        require(raiseAmount < hardcap ,\"Enough hardcap \");\r\n        require(msg.value == 1 ether,\"Don't enough 1 BNB\");\r\n        contributor.push(msg.sender);\r\n\r\n         payable(deposit).transfer(msg.value);\r\n         raiseAmount += 1 ether;\r\n         \r\n        return true;       \r\n    }\r\n\r\n\r\n    function getContributor() public onlyAdmin view returns(address[] memory)  {\r\n        return contributor;\r\n    }\r\n\r\n}",
  "sourcePath": "D:\\Project TanDa\\BlockChain\\IDO_Public\\contracts\\IDOPublic.sol",
  "compiler": {
    "name": "solc",
    "version": "0.8.0+commit.c7dfd78e.Emscripten.clang"
  },
  "schemaVersion": "3.4.4",
  "updatedAt": "2022-02-18T04:50:48.573Z",
  "networkType": "ethereum",
  "devdoc": {
    "kind": "dev",
    "methods": {},
    "version": 1
  },
  "userdoc": {
    "kind": "user",
    "methods": {},
    "version": 1
  }
}