{
  "contractName": "AuraToken",
  "abi": [
    {
      "inputs": [],
      "stateMutability": "nonpayable",
      "type": "constructor"
    },
    {
      "anonymous": false,
      "inputs": [
        {
          "indexed": true,
          "internalType": "address",
          "name": "owner",
          "type": "address"
        },
        {
          "indexed": true,
          "internalType": "address",
          "name": "spender",
          "type": "address"
        },
        {
          "indexed": false,
          "internalType": "uint256",
          "name": "value",
          "type": "uint256"
        }
      ],
      "name": "Approval",
      "type": "event"
    },
    {
      "anonymous": false,
      "inputs": [
        {
          "indexed": true,
          "internalType": "address",
          "name": "from",
          "type": "address"
        },
        {
          "indexed": true,
          "internalType": "address",
          "name": "to",
          "type": "address"
        },
        {
          "indexed": false,
          "internalType": "uint256",
          "name": "value",
          "type": "uint256"
        }
      ],
      "name": "Transfer",
      "type": "event"
    },
    {
      "inputs": [],
      "name": "manager",
      "outputs": [
        {
          "internalType": "address",
          "name": "",
          "type": "address"
        }
      ],
      "stateMutability": "view",
      "type": "function",
      "constant": true
    },
    {
      "inputs": [],
      "name": "getOwner",
      "outputs": [
        {
          "internalType": "address",
          "name": "",
          "type": "address"
        }
      ],
      "stateMutability": "view",
      "type": "function",
      "constant": true
    },
    {
      "inputs": [],
      "name": "decimals",
      "outputs": [
        {
          "internalType": "uint8",
          "name": "",
          "type": "uint8"
        }
      ],
      "stateMutability": "view",
      "type": "function",
      "constant": true
    },
    {
      "inputs": [],
      "name": "symbol",
      "outputs": [
        {
          "internalType": "string",
          "name": "",
          "type": "string"
        }
      ],
      "stateMutability": "view",
      "type": "function",
      "constant": true
    },
    {
      "inputs": [],
      "name": "name",
      "outputs": [
        {
          "internalType": "string",
          "name": "",
          "type": "string"
        }
      ],
      "stateMutability": "view",
      "type": "function",
      "constant": true
    },
    {
      "inputs": [],
      "name": "totalSupply",
      "outputs": [
        {
          "internalType": "uint256",
          "name": "",
          "type": "uint256"
        }
      ],
      "stateMutability": "view",
      "type": "function",
      "constant": true
    },
    {
      "inputs": [
        {
          "internalType": "address",
          "name": "account",
          "type": "address"
        }
      ],
      "name": "balanceOf",
      "outputs": [
        {
          "internalType": "uint256",
          "name": "",
          "type": "uint256"
        }
      ],
      "stateMutability": "view",
      "type": "function",
      "constant": true
    },
    {
      "inputs": [
        {
          "internalType": "address",
          "name": "recipient",
          "type": "address"
        },
        {
          "internalType": "uint256",
          "name": "amount",
          "type": "uint256"
        }
      ],
      "name": "transfer",
      "outputs": [
        {
          "internalType": "bool",
          "name": "",
          "type": "bool"
        }
      ],
      "stateMutability": "nonpayable",
      "type": "function"
    },
    {
      "inputs": [
        {
          "internalType": "address",
          "name": "owner",
          "type": "address"
        },
        {
          "internalType": "address",
          "name": "spender",
          "type": "address"
        }
      ],
      "name": "allowance",
      "outputs": [
        {
          "internalType": "uint256",
          "name": "",
          "type": "uint256"
        }
      ],
      "stateMutability": "view",
      "type": "function",
      "constant": true
    },
    {
      "inputs": [
        {
          "internalType": "address",
          "name": "spender",
          "type": "address"
        },
        {
          "internalType": "uint256",
          "name": "amount",
          "type": "uint256"
        }
      ],
      "name": "approve",
      "outputs": [
        {
          "internalType": "bool",
          "name": "",
          "type": "bool"
        }
      ],
      "stateMutability": "nonpayable",
      "type": "function"
    },
    {
      "inputs": [
        {
          "internalType": "address",
          "name": "sender",
          "type": "address"
        },
        {
          "internalType": "address",
          "name": "recipient",
          "type": "address"
        },
        {
          "internalType": "uint256",
          "name": "amount",
          "type": "uint256"
        }
      ],
      "name": "transferFrom",
      "outputs": [
        {
          "internalType": "bool",
          "name": "",
          "type": "bool"
        }
      ],
      "stateMutability": "nonpayable",
      "type": "function"
    },
    {
      "inputs": [
        {
          "internalType": "address",
          "name": "spender",
          "type": "address"
        },
        {
          "internalType": "uint256",
          "name": "addedValue",
          "type": "uint256"
        }
      ],
      "name": "increaseAllowance",
      "outputs": [
        {
          "internalType": "bool",
          "name": "",
          "type": "bool"
        }
      ],
      "stateMutability": "nonpayable",
      "type": "function"
    },
    {
      "inputs": [
        {
          "internalType": "address",
          "name": "spender",
          "type": "address"
        },
        {
          "internalType": "uint256",
          "name": "subtractedValue",
          "type": "uint256"
        }
      ],
      "name": "decreaseAllowance",
      "outputs": [
        {
          "internalType": "bool",
          "name": "",
          "type": "bool"
        }
      ],
      "stateMutability": "nonpayable",
      "type": "function"
    }
  ],
  "bytecode": "0x60806040523480156200001157600080fd5b506040518060400160405280600981526020017f41757261546f6b656e0000000000000000000000000000000000000000000000815250600590805190602001906200005f929190620001d3565b506040518060400160405280600481526020017f415552540000000000000000000000000000000000000000000000000000000081525060049080519060200190620000ad929190620001d3565b506012600360006101000a81548160ff021916908360ff1602179055506b019d971e4fe8401e740000006002819055506002546000803373ffffffffffffffffffffffffffffffffffffffff1673ffffffffffffffffffffffffffffffffffffffff1681526020019081526020016000208190555033600660006101000a81548173ffffffffffffffffffffffffffffffffffffffff021916908373ffffffffffffffffffffffffffffffffffffffff1602179055503373ffffffffffffffffffffffffffffffffffffffff16600073ffffffffffffffffffffffffffffffffffffffff167fddf252ad1be2c89b69c2b068fc378daa952ba7f163c4a11628f55a4df523b3ef600254604051620001c591906200029e565b60405180910390a362000320565b828054620001e190620002ea565b90600052602060002090601f01602090048101928262000205576000855562000251565b82601f106200022057805160ff191683800117855562000251565b8280016001018555821562000251579182015b828111156200025057825182559160200191906001019062000233565b5b50905062000260919062000264565b5090565b5b808211156200027f57600081600090555060010162000265565b5090565b6000819050919050565b620002988162000283565b82525050565b6000602082019050620002b560008301846200028d565b92915050565b7f4e487b7100000000000000000000000000000000000000000000000000000000600052602260045260246000fd5b600060028204905060018216806200030357607f821691505b602082108114156200031a5762000319620002bb565b5b50919050565b61147c80620003306000396000f3fe608060405234801561001057600080fd5b50600436106100cf5760003560e01c8063481c6a751161008c57806395d89b411161006657806395d89b411461022a578063a457c2d714610248578063a9059cbb14610278578063dd62ed3e146102a8576100cf565b8063481c6a75146101be57806370a08231146101dc578063893d20e81461020c576100cf565b806306fdde03146100d4578063095ea7b3146100f257806318160ddd1461012257806323b872dd14610140578063313ce56714610170578063395093511461018e575b600080fd5b6100dc6102d8565b6040516100e99190610d89565b60405180910390f35b61010c60048036038101906101079190610e44565b61036a565b6040516101199190610e9f565b60405180910390f35b61012a610388565b6040516101379190610ec9565b60405180910390f35b61015a60048036038101906101559190610ee4565b610392565b6040516101679190610e9f565b60405180910390f35b61017861046b565b6040516101859190610f53565b60405180910390f35b6101a860048036038101906101a39190610e44565b610482565b6040516101b59190610e9f565b60405180910390f35b6101c6610535565b6040516101d39190610f7d565b60405180910390f35b6101f660048036038101906101f19190610f98565b61055b565b6040516102039190610ec9565b60405180910390f35b6102146105a3565b6040516102219190610f7d565b60405180910390f35b6102326105cd565b60405161023f9190610d89565b60405180910390f35b610262600480360381019061025d9190610e44565b61065f565b60405161026f9190610e9f565b60405180910390f35b610292600480360381019061028d9190610e44565b61072c565b60405161029f9190610e9f565b60405180910390f35b6102c260048036038101906102bd9190610fc5565b61074a565b6040516102cf9190610ec9565b60405180910390f35b6060600580546102e790611034565b80601f016020809104026020016040519081016040528092919081815260200182805461031390611034565b80156103605780601f1061033557610100808354040283529160200191610360565b820191906000526020600020905b81548152906001019060200180831161034357829003601f168201915b5050505050905090565b600061037e6103776107d1565b84846107d9565b6001905092915050565b6000600254905090565b600061039f8484846109a4565b610460846103ab6107d1565b61045b856040518060600160405280602881526020016113d460289139600160008b73ffffffffffffffffffffffffffffffffffffffff1673ffffffffffffffffffffffffffffffffffffffff16815260200190815260200160002060006104116107d1565b73ffffffffffffffffffffffffffffffffffffffff1673ffffffffffffffffffffffffffffffffffffffff16815260200190815260200160002054610c2e9092919063ffffffff16565b6107d9565b600190509392505050565b6000600360009054906101000a900460ff16905090565b600061052b61048f6107d1565b8461052685600160006104a06107d1565b73ffffffffffffffffffffffffffffffffffffffff1673ffffffffffffffffffffffffffffffffffffffff16815260200190815260200160002060008973ffffffffffffffffffffffffffffffffffffffff1673ffffffffffffffffffffffffffffffffffffffff16815260200190815260200160002054610c9290919063ffffffff16565b6107d9565b6001905092915050565b600660009054906101000a900473ffffffffffffffffffffffffffffffffffffffff1681565b60008060008373ffffffffffffffffffffffffffffffffffffffff1673ffffffffffffffffffffffffffffffffffffffff168152602001908152602001600020549050919050565b6000600660009054906101000a900473ffffffffffffffffffffffffffffffffffffffff16905090565b6060600480546105dc90611034565b80601f016020809104026020016040519081016040528092919081815260200182805461060890611034565b80156106555780601f1061062a57610100808354040283529160200191610655565b820191906000526020600020905b81548152906001019060200180831161063857829003601f168201915b5050505050905090565b600061072261066c6107d1565b8461071d8560405180606001604052806025815260200161142260259139600160006106966107d1565b73ffffffffffffffffffffffffffffffffffffffff1673ffffffffffffffffffffffffffffffffffffffff16815260200190815260200160002060008a73ffffffffffffffffffffffffffffffffffffffff1673ffffffffffffffffffffffffffffffffffffffff16815260200190815260200160002054610c2e9092919063ffffffff16565b6107d9565b6001905092915050565b60006107406107396107d1565b84846109a4565b6001905092915050565b6000600160008473ffffffffffffffffffffffffffffffffffffffff1673ffffffffffffffffffffffffffffffffffffffff16815260200190815260200160002060008373ffffffffffffffffffffffffffffffffffffffff1673ffffffffffffffffffffffffffffffffffffffff16815260200190815260200160002054905092915050565b600033905090565b600073ffffffffffffffffffffffffffffffffffffffff168373ffffffffffffffffffffffffffffffffffffffff161415610849576040517f08c379a0000000000000000000000000000000000000000000000000000000008152600401610840906110d8565b60405180910390fd5b600073ffffffffffffffffffffffffffffffffffffffff168273ffffffffffffffffffffffffffffffffffffffff1614156108b9576040517f08c379a00000000000000000000000000000000000000000000000000000000081526004016108b09061116a565b60405180910390fd5b80600160008573ffffffffffffffffffffffffffffffffffffffff1673ffffffffffffffffffffffffffffffffffffffff16815260200190815260200160002060008473ffffffffffffffffffffffffffffffffffffffff1673ffffffffffffffffffffffffffffffffffffffff168152602001908152602001600020819055508173ffffffffffffffffffffffffffffffffffffffff168373ffffffffffffffffffffffffffffffffffffffff167f8c5be1e5ebec7d5bd14f71427d1e84f3dd0314c0f7b2291e5b200ac8c7c3b925836040516109979190610ec9565b60405180910390a3505050565b600073ffffffffffffffffffffffffffffffffffffffff168373ffffffffffffffffffffffffffffffffffffffff161415610a14576040517f08c379a0000000000000000000000000000000000000000000000000000000008152600401610a0b906111fc565b60405180910390fd5b600073ffffffffffffffffffffffffffffffffffffffff168273ffffffffffffffffffffffffffffffffffffffff161415610a84576040517f08c379a0000000000000000000000000000000000000000000000000000000008152600401610a7b9061128e565b60405180910390fd5b610aef816040518060600160405280602681526020016113fc602691396000808773ffffffffffffffffffffffffffffffffffffffff1673ffffffffffffffffffffffffffffffffffffffff16815260200190815260200160002054610c2e9092919063ffffffff16565b6000808573ffffffffffffffffffffffffffffffffffffffff1673ffffffffffffffffffffffffffffffffffffffff16815260200190815260200160002081905550610b82816000808573ffffffffffffffffffffffffffffffffffffffff1673ffffffffffffffffffffffffffffffffffffffff16815260200190815260200160002054610c9290919063ffffffff16565b6000808473ffffffffffffffffffffffffffffffffffffffff1673ffffffffffffffffffffffffffffffffffffffff168152602001908152602001600020819055508173ffffffffffffffffffffffffffffffffffffffff168373ffffffffffffffffffffffffffffffffffffffff167fddf252ad1be2c89b69c2b068fc378daa952ba7f163c4a11628f55a4df523b3ef83604051610c219190610ec9565b60405180910390a3505050565b6000838311158290610c76576040517f08c379a0000000000000000000000000000000000000000000000000000000008152600401610c6d9190610d89565b60405180910390fd5b5060008385610c8591906112dd565b9050809150509392505050565b6000808284610ca19190611311565b905083811015610ce6576040517f08c379a0000000000000000000000000000000000000000000000000000000008152600401610cdd906113b3565b60405180910390fd5b8091505092915050565b600081519050919050565b600082825260208201905092915050565b60005b83811015610d2a578082015181840152602081019050610d0f565b83811115610d39576000848401525b50505050565b6000601f19601f8301169050919050565b6000610d5b82610cf0565b610d658185610cfb565b9350610d75818560208601610d0c565b610d7e81610d3f565b840191505092915050565b60006020820190508181036000830152610da38184610d50565b905092915050565b600080fd5b600073ffffffffffffffffffffffffffffffffffffffff82169050919050565b6000610ddb82610db0565b9050919050565b610deb81610dd0565b8114610df657600080fd5b50565b600081359050610e0881610de2565b92915050565b6000819050919050565b610e2181610e0e565b8114610e2c57600080fd5b50565b600081359050610e3e81610e18565b92915050565b60008060408385031215610e5b57610e5a610dab565b5b6000610e6985828601610df9565b9250506020610e7a85828601610e2f565b9150509250929050565b60008115159050919050565b610e9981610e84565b82525050565b6000602082019050610eb46000830184610e90565b92915050565b610ec381610e0e565b82525050565b6000602082019050610ede6000830184610eba565b92915050565b600080600060608486031215610efd57610efc610dab565b5b6000610f0b86828701610df9565b9350506020610f1c86828701610df9565b9250506040610f2d86828701610e2f565b9150509250925092565b600060ff82169050919050565b610f4d81610f37565b82525050565b6000602082019050610f686000830184610f44565b92915050565b610f7781610dd0565b82525050565b6000602082019050610f926000830184610f6e565b92915050565b600060208284031215610fae57610fad610dab565b5b6000610fbc84828501610df9565b91505092915050565b60008060408385031215610fdc57610fdb610dab565b5b6000610fea85828601610df9565b9250506020610ffb85828601610df9565b9150509250929050565b7f4e487b7100000000000000000000000000000000000000000000000000000000600052602260045260246000fd5b6000600282049050600182168061104c57607f821691505b602082108114156110605761105f611005565b5b50919050565b7f42455032303a20617070726f76652066726f6d20746865207a65726f2061646460008201527f7265737300000000000000000000000000000000000000000000000000000000602082015250565b60006110c2602483610cfb565b91506110cd82611066565b604082019050919050565b600060208201905081810360008301526110f1816110b5565b9050919050565b7f42455032303a20617070726f766520746f20746865207a65726f20616464726560008201527f7373000000000000000000000000000000000000000000000000000000000000602082015250565b6000611154602283610cfb565b915061115f826110f8565b604082019050919050565b6000602082019050818103600083015261118381611147565b9050919050565b7f42455032303a207472616e736665722066726f6d20746865207a65726f20616460008201527f6472657373000000000000000000000000000000000000000000000000000000602082015250565b60006111e6602583610cfb565b91506111f18261118a565b604082019050919050565b60006020820190508181036000830152611215816111d9565b9050919050565b7f42455032303a207472616e7366657220746f20746865207a65726f206164647260008201527f6573730000000000000000000000000000000000000000000000000000000000602082015250565b6000611278602383610cfb565b91506112838261121c565b604082019050919050565b600060208201905081810360008301526112a78161126b565b9050919050565b7f4e487b7100000000000000000000000000000000000000000000000000000000600052601160045260246000fd5b60006112e882610e0e565b91506112f383610e0e565b925082821015611306576113056112ae565b5b828203905092915050565b600061131c82610e0e565b915061132783610e0e565b9250827fffffffffffffffffffffffffffffffffffffffffffffffffffffffffffffffff0382111561135c5761135b6112ae565b5b828201905092915050565b7f536166654d6174683a206164646974696f6e206f766572666c6f770000000000600082015250565b600061139d601b83610cfb565b91506113a882611367565b602082019050919050565b600060208201905081810360008301526113cc81611390565b905091905056fe42455032303a207472616e7366657220616d6f756e74206578636565647320616c6c6f77616e636542455032303a207472616e7366657220616d6f756e7420657863656564732062616c616e636542455032303a2064656372656173656420616c6c6f77616e63652062656c6f77207a65726fa2646970667358221220463145e13bb7e663095973b6c20f5b7ca6d6db863d6ed6a955188308d3baa30764736f6c634300080c0033",
  "immutableReferences": {},
  "source": "//SPDX-License-Identifier: GPL-3.0\r\n\r\npragma solidity 0.8.12;\r\n\r\ninterface IBEP20 {\r\n\r\n  function totalSupply() external view returns (uint256);\r\n  function decimals() external view returns (uint8);\r\n  function symbol() external view returns (string memory);\r\n  function name() external view returns (string memory);\r\n  function getOwner() external view returns (address);\r\n  function balanceOf(address account) external view returns (uint256);\r\n  function transfer(address recipient, uint256 amount) external returns (bool);\r\n  function allowance(address _owner, address spender) external view returns (uint256);\r\n  function approve(address spender, uint256 amount) external returns (bool);\r\n  function transferFrom(address sender, address recipient, uint256 amount) external returns (bool);\r\n  event Transfer(address indexed from, address indexed to, uint256 value);\r\n  event Approval(address indexed owner, address indexed spender, uint256 value);\r\n}\r\n\r\ncontract Context {\r\n\r\n  constructor () {}\r\n\r\n  function _msgSender() internal view returns (address ) {\r\n    return msg.sender;\r\n  }\r\n\r\n  function _msgData() internal view returns (bytes memory) {\r\n    this; \r\n    return msg.data;\r\n  }\r\n}\r\n\r\nlibrary SafeMath {\r\n \r\n  function add(uint256 a, uint256 b) internal pure returns (uint256) {\r\n    uint256 c = a + b;\r\n    require(c >= a, \"SafeMath: addition overflow\");\r\n\r\n    return c;\r\n  }\r\n  function sub(uint256 a, uint256 b) internal pure returns (uint256) {\r\n    return sub(a, b, \"SafeMath: subtraction overflow\");\r\n  }\r\n\r\n  function sub(uint256 a, uint256 b, string memory errorMessage) internal pure returns (uint256) {\r\n    require(b <= a, errorMessage);\r\n    uint256 c = a - b;\r\n\r\n    return c;\r\n  }\r\n\r\n  function mul(uint256 a, uint256 b) internal pure returns (uint256) {\r\n    if (a == 0) {\r\n      return 0;\r\n    }\r\n\r\n    uint256 c = a * b;\r\n    require(c / a == b, \"SafeMath: multiplication overflow\");\r\n\r\n    return c;\r\n  }\r\n  function div(uint256 a, uint256 b) internal pure returns (uint256) {\r\n    return div(a, b, \"SafeMath: division by zero\");\r\n  }\r\n\r\n  function div(uint256 a, uint256 b, string memory errorMessage) internal pure returns (uint256) {\r\n    require(b > 0, errorMessage);\r\n    uint256 c = a / b;\r\n    return c;\r\n  }\r\n  function mod(uint256 a, uint256 b) internal pure returns (uint256) {\r\n    return mod(a, b, \"SafeMath: modulo by zero\");\r\n  }\r\n\r\n  function mod(uint256 a, uint256 b, string memory errorMessage) internal pure returns (uint256) {\r\n    require(b != 0, errorMessage);\r\n    return a % b;\r\n  }\r\n}\r\n\r\n\r\n\r\ncontract AuraToken is Context, IBEP20 {\r\n  using SafeMath for uint256;\r\n\r\n  mapping (address => uint256) private _balances;\r\n\r\n  mapping (address => mapping (address => uint256)) private _allowances;\r\n\r\n  uint256 private _totalSupply;\r\n  uint8 private _decimals;\r\n  string private _symbol;\r\n  string private _name;\r\n  address public manager ;\r\n\r\n  constructor()  {\r\n    _name = \"AuraToken\";\r\n    _symbol = \"AURT\";\r\n    _decimals = 18;\r\n    _totalSupply = 500000000* 10**18;\r\n    _balances[msg.sender] = _totalSupply;\r\n    manager= msg.sender;\r\n\r\n    emit Transfer(address(0), msg.sender, _totalSupply);\r\n  }\r\n\r\n//Getter\r\n  function getOwner() external view virtual override returns (address) {\r\n    return manager;\r\n  }\r\n  function decimals() external view virtual override returns (uint8) {\r\n    return _decimals;\r\n  }\r\n  function symbol() external view virtual override returns (string memory) {\r\n    return _symbol;\r\n  }\r\n  function name() external view virtual override returns (string memory) {\r\n    return _name;\r\n  }\r\n  function totalSupply() external view virtual override returns (uint256) {\r\n    return _totalSupply;\r\n  }\r\n  function balanceOf(address account) external view virtual override returns (uint256) {\r\n    return _balances[account];\r\n  }\r\n\r\n\r\n\r\n  function transfer(address recipient, uint256 amount) external override returns (bool) {\r\n    _transfer(_msgSender(), recipient, amount);\r\n    return true;\r\n  }\r\n  function allowance(address owner, address spender) external view override returns (uint256) {\r\n    return _allowances[owner][spender];\r\n  }\r\n  function approve(address spender, uint256 amount) external override returns (bool) {\r\n    _approve(_msgSender(), spender, amount);\r\n    return true;\r\n  }\r\n  function transferFrom(address sender, address recipient, uint256 amount) external override returns (bool) {\r\n    _transfer(sender, recipient, amount);\r\n    _approve(sender, _msgSender(), _allowances[sender][_msgSender()].sub(amount, \"BEP20: transfer amount exceeds allowance\"));\r\n    return true;\r\n  }\r\n  function increaseAllowance(address spender, uint256 addedValue) public returns (bool) {\r\n    _approve(_msgSender(), spender, _allowances[_msgSender()][spender].add(addedValue));\r\n    return true;\r\n  }\r\n  function decreaseAllowance(address spender, uint256 subtractedValue) public returns (bool) {\r\n    _approve(_msgSender(), spender, _allowances[_msgSender()][spender].sub(subtractedValue, \"BEP20: decreased allowance below zero\"));\r\n    return true;\r\n  }\r\n\r\n  \r\n  function _transfer(address sender, address recipient, uint256 amount) internal {\r\n    require(sender != address(0), \"BEP20: transfer from the zero address\");\r\n    require(recipient != address(0), \"BEP20: transfer to the zero address\");\r\n\r\n    _balances[sender] = _balances[sender].sub(amount, \"BEP20: transfer amount exceeds balance\");\r\n    _balances[recipient] = _balances[recipient].add(amount);\r\n    emit Transfer(sender, recipient, amount);\r\n  }\r\n\r\n  function _mint(address account, uint256 amount) internal {\r\n    require(account != address(0), \"BEP20: mint to the zero address\");\r\n\r\n    _totalSupply = _totalSupply.add(amount);\r\n    _balances[account] = _balances[account].add(amount);\r\n    emit Transfer(address(0), account, amount);\r\n  }\r\n\r\n  function _burn(address account, uint256 amount) internal {\r\n    require(account != address(0), \"BEP20: burn from the zero address\");\r\n\r\n    _balances[account] = _balances[account].sub(amount, \"BEP20: burn amount exceeds balance\");\r\n    _totalSupply = _totalSupply.sub(amount);\r\n    emit Transfer(account, address(0), amount);\r\n  }\r\n\r\n  function _approve(address owner, address spender, uint256 amount) internal {\r\n    require(owner != address(0), \"BEP20: approve from the zero address\");\r\n    require(spender != address(0), \"BEP20: approve to the zero address\");\r\n\r\n    _allowances[owner][spender] = amount;\r\n    emit Approval(owner, spender, amount);\r\n  }\r\n\r\n  function _burnFrom(address account, uint256 amount) internal {\r\n    _burn(account, amount);\r\n    _approve(account, _msgSender(), _allowances[account][_msgSender()].sub(amount, \"BEP20: burn amount exceeds allowance\"));\r\n  }\r\n}\r\n\r\n",
  "sourcePath": "D:\\Project TanDa\\BlockChain\\IDO_Claim\\contracts\\AuraToken.sol",
  "compiler": {
    "name": "solc",
    "version": "0.8.12+commit.f00d7308.Emscripten.clang"
  },
  "schemaVersion": "3.4.5",
  "updatedAt": "2022-02-20T15:05:52.534Z",
  "networkType": "ethereum",
  "devdoc": {
    "kind": "dev",
    "methods": {},
    "version": 1
  },
  "userdoc": {
    "kind": "user",
    "methods": {},
    "version": 1
  }
}