{
  "contractName": "AuraPrivate",
  "abi": [
    {
      "inputs": [
        {
          "internalType": "address",
          "name": "_deposit",
          "type": "address"
        },
        {
          "internalType": "contract AuraToken",
          "name": "_tokenContract",
          "type": "address"
        },
        {
          "internalType": "address[]",
          "name": "_privateGroup",
          "type": "address[]"
        }
      ],
      "stateMutability": "nonpayable",
      "type": "constructor"
    },
    {
      "inputs": [],
      "name": "deposit",
      "outputs": [
        {
          "internalType": "address",
          "name": "",
          "type": "address"
        }
      ],
      "stateMutability": "view",
      "type": "function",
      "constant": true
    },
    {
      "inputs": [],
      "name": "firstTGE",
      "outputs": [
        {
          "internalType": "uint256",
          "name": "",
          "type": "uint256"
        }
      ],
      "stateMutability": "view",
      "type": "function",
      "constant": true
    },
    {
      "inputs": [],
      "name": "firstTime",
      "outputs": [
        {
          "internalType": "bool",
          "name": "",
          "type": "bool"
        }
      ],
      "stateMutability": "view",
      "type": "function",
      "constant": true
    },
    {
      "inputs": [],
      "name": "laterTGE",
      "outputs": [
        {
          "internalType": "uint256",
          "name": "",
          "type": "uint256"
        }
      ],
      "stateMutability": "view",
      "type": "function",
      "constant": true
    },
    {
      "inputs": [],
      "name": "manager",
      "outputs": [
        {
          "internalType": "address",
          "name": "",
          "type": "address"
        }
      ],
      "stateMutability": "view",
      "type": "function",
      "constant": true
    },
    {
      "inputs": [
        {
          "internalType": "uint256",
          "name": "",
          "type": "uint256"
        }
      ],
      "name": "privateGroup",
      "outputs": [
        {
          "internalType": "address",
          "name": "",
          "type": "address"
        }
      ],
      "stateMutability": "view",
      "type": "function",
      "constant": true
    },
    {
      "inputs": [],
      "name": "tokenContract",
      "outputs": [
        {
          "internalType": "contract AuraToken",
          "name": "",
          "type": "address"
        }
      ],
      "stateMutability": "view",
      "type": "function",
      "constant": true
    },
    {
      "inputs": [],
      "name": "getTokenContract",
      "outputs": [
        {
          "internalType": "contract AuraToken",
          "name": "",
          "type": "address"
        }
      ],
      "stateMutability": "view",
      "type": "function",
      "constant": true
    },
    {
      "inputs": [],
      "name": "getPrivateGroup",
      "outputs": [
        {
          "internalType": "address[]",
          "name": "",
          "type": "address[]"
        }
      ],
      "stateMutability": "view",
      "type": "function",
      "constant": true
    },
    {
      "inputs": [
        {
          "internalType": "uint256",
          "name": "amount",
          "type": "uint256"
        }
      ],
      "name": "burnCoin",
      "outputs": [],
      "stateMutability": "nonpayable",
      "type": "function"
    },
    {
      "inputs": [],
      "name": "transferCoinToPrivate",
      "outputs": [
        {
          "internalType": "bool",
          "name": "",
          "type": "bool"
        }
      ],
      "stateMutability": "nonpayable",
      "type": "function"
    }
  ],
  "bytecode": "0x608060405268a2a15d09519be00000600355686c6b935b8bbd4000006004556001600560006101000a81548160ff0219169083151502179055503480156200004657600080fd5b506040516200110c3803806200110c83398181016040528101906200006c919062000431565b82600560016101000a81548173ffffffffffffffffffffffffffffffffffffffff021916908373ffffffffffffffffffffffffffffffffffffffff160217905550336000806101000a81548173ffffffffffffffffffffffffffffffffffffffff021916908373ffffffffffffffffffffffffffffffffffffffff16021790555081600160006101000a81548173ffffffffffffffffffffffffffffffffffffffff021916908373ffffffffffffffffffffffffffffffffffffffff16021790555080600290805190602001906200014692919062000150565b50505050620004ac565b828054828255906000526020600020908101928215620001cc579160200282015b82811115620001cb5782518260006101000a81548173ffffffffffffffffffffffffffffffffffffffff021916908373ffffffffffffffffffffffffffffffffffffffff1602179055509160200191906001019062000171565b5b509050620001db9190620001df565b5090565b5b80821115620001fa576000816000905550600101620001e0565b5090565b6000604051905090565b600080fd5b600080fd5b600073ffffffffffffffffffffffffffffffffffffffff82169050919050565b60006200023f8262000212565b9050919050565b620002518162000232565b81146200025d57600080fd5b50565b600081519050620002718162000246565b92915050565b6000620002848262000232565b9050919050565b620002968162000277565b8114620002a257600080fd5b50565b600081519050620002b6816200028b565b92915050565b600080fd5b6000601f19601f8301169050919050565b7f4e487b7100000000000000000000000000000000000000000000000000000000600052604160045260246000fd5b6200030c82620002c1565b810181811067ffffffffffffffff821117156200032e576200032d620002d2565b5b80604052505050565b600062000343620001fe565b905062000351828262000301565b919050565b600067ffffffffffffffff821115620003745762000373620002d2565b5b602082029050602081019050919050565b600080fd5b6000620003a16200039b8462000356565b62000337565b90508083825260208201905060208402830185811115620003c757620003c662000385565b5b835b81811015620003f45780620003df888262000260565b845260208401935050602081019050620003c9565b5050509392505050565b600082601f830112620004165762000415620002bc565b5b8151620004288482602086016200038a565b91505092915050565b6000806000606084860312156200044d576200044c62000208565b5b60006200045d8682870162000260565b93505060206200047086828701620002a5565b925050604084015167ffffffffffffffff8111156200049457620004936200020d565b5b620004a286828701620003fe565b9150509250925092565b610c5080620004bc6000396000f3fe608060405234801561001057600080fd5b50600436106100a95760003560e01c806379ec9cb71161007157806379ec9cb7146101565780637efd9b5b14610174578063a3262e5714610192578063bea3e50d146101ae578063d0e30db0146101cc578063dcc55ffa146101ea576100a9565b8063277347fe146100ae57806328b7bede146100de57806341d76a9c146100fc578063481c6a751461011a57806355a373d614610138575b600080fd5b6100c860048036038101906100c39190610854565b610208565b6040516100d591906108c2565b60405180910390f35b6100e6610247565b6040516100f3919061093c565b60405180910390f35b6101046102ca565b6040516101119190610972565b60405180910390f35b6101226102dd565b60405161012f91906108c2565b60405180910390f35b610140610301565b60405161014d919061093c565b60405180910390f35b61015e610327565b60405161016b9190610a4b565b60405180910390f35b61017c61040d565b6040516101899190610a7c565b60405180910390f35b6101ac60048036038101906101a79190610854565b610413565b005b6101b6610544565b6040516101c39190610972565b60405180910390f35b6101d46107ed565b6040516101e191906108c2565b60405180910390f35b6101f2610813565b6040516101ff9190610a7c565b60405180910390f35b6002818154811061021857600080fd5b906000526020600020016000915054906101000a900473ffffffffffffffffffffffffffffffffffffffff1681565b60008060009054906101000a900473ffffffffffffffffffffffffffffffffffffffff1673ffffffffffffffffffffffffffffffffffffffff163373ffffffffffffffffffffffffffffffffffffffff16146102a257600080fd5b600160009054906101000a900473ffffffffffffffffffffffffffffffffffffffff16905090565b600560009054906101000a900460ff1681565b60008054906101000a900473ffffffffffffffffffffffffffffffffffffffff1681565b600160009054906101000a900473ffffffffffffffffffffffffffffffffffffffff1681565b606060008054906101000a900473ffffffffffffffffffffffffffffffffffffffff1673ffffffffffffffffffffffffffffffffffffffff163373ffffffffffffffffffffffffffffffffffffffff161461038157600080fd5b600280548060200260200160405190810160405280929190818152602001828054801561040357602002820191906000526020600020905b8160009054906101000a900473ffffffffffffffffffffffffffffffffffffffff1673ffffffffffffffffffffffffffffffffffffffff16815260200190600101908083116103b9575b5050505050905090565b60045481565b60008054906101000a900473ffffffffffffffffffffffffffffffffffffffff1673ffffffffffffffffffffffffffffffffffffffff163373ffffffffffffffffffffffffffffffffffffffff161461046b57600080fd5b600160009054906101000a900473ffffffffffffffffffffffffffffffffffffffff1673ffffffffffffffffffffffffffffffffffffffff1663a9059cbb600560019054906101000a900473ffffffffffffffffffffffffffffffffffffffff16670de0b6b3a7640000846104e09190610ac6565b6040518363ffffffff1660e01b81526004016104fd929190610b20565b6020604051808303816000875af115801561051c573d6000803e3d6000fd5b505050506040513d601f19601f820116820180604052508101906105409190610b75565b5050565b60008060009054906101000a900473ffffffffffffffffffffffffffffffffffffffff1673ffffffffffffffffffffffffffffffffffffffff163373ffffffffffffffffffffffffffffffffffffffff161461059f57600080fd5b60011515600560009054906101000a900460ff16151514156106e05760005b6002805490508110156106bf57600160009054906101000a900473ffffffffffffffffffffffffffffffffffffffff1673ffffffffffffffffffffffffffffffffffffffff1663a9059cbb6002838154811061061d5761061c610ba2565b5b9060005260206000200160009054906101000a900473ffffffffffffffffffffffffffffffffffffffff166003546040518363ffffffff1660e01b8152600401610668929190610b20565b6020604051808303816000875af1158015610687573d6000803e3d6000fd5b505050506040513d601f19601f820116820180604052508101906106ab9190610b75565b5080806106b790610bd1565b9150506105be565b506000600560006101000a81548160ff0219169083151502179055506107e6565b60005b6002805490508110156107e457600160009054906101000a900473ffffffffffffffffffffffffffffffffffffffff1673ffffffffffffffffffffffffffffffffffffffff1663a9059cbb6002838154811061074257610741610ba2565b5b9060005260206000200160009054906101000a900473ffffffffffffffffffffffffffffffffffffffff166004546040518363ffffffff1660e01b815260040161078d929190610b20565b6020604051808303816000875af11580156107ac573d6000803e3d6000fd5b505050506040513d601f19601f820116820180604052508101906107d09190610b75565b5080806107dc90610bd1565b9150506106e3565b505b6001905090565b600560019054906101000a900473ffffffffffffffffffffffffffffffffffffffff1681565b60035481565b600080fd5b6000819050919050565b6108318161081e565b811461083c57600080fd5b50565b60008135905061084e81610828565b92915050565b60006020828403121561086a57610869610819565b5b60006108788482850161083f565b91505092915050565b600073ffffffffffffffffffffffffffffffffffffffff82169050919050565b60006108ac82610881565b9050919050565b6108bc816108a1565b82525050565b60006020820190506108d760008301846108b3565b92915050565b6000819050919050565b60006109026108fd6108f884610881565b6108dd565b610881565b9050919050565b6000610914826108e7565b9050919050565b600061092682610909565b9050919050565b6109368161091b565b82525050565b6000602082019050610951600083018461092d565b92915050565b60008115159050919050565b61096c81610957565b82525050565b60006020820190506109876000830184610963565b92915050565b600081519050919050565b600082825260208201905092915050565b6000819050602082019050919050565b6109c2816108a1565b82525050565b60006109d483836109b9565b60208301905092915050565b6000602082019050919050565b60006109f88261098d565b610a028185610998565b9350610a0d836109a9565b8060005b83811015610a3e578151610a2588826109c8565b9750610a30836109e0565b925050600181019050610a11565b5085935050505092915050565b60006020820190508181036000830152610a6581846109ed565b905092915050565b610a768161081e565b82525050565b6000602082019050610a916000830184610a6d565b92915050565b7f4e487b7100000000000000000000000000000000000000000000000000000000600052601160045260246000fd5b6000610ad18261081e565b9150610adc8361081e565b9250817fffffffffffffffffffffffffffffffffffffffffffffffffffffffffffffffff0483118215151615610b1557610b14610a97565b5b828202905092915050565b6000604082019050610b3560008301856108b3565b610b426020830184610a6d565b9392505050565b610b5281610957565b8114610b5d57600080fd5b50565b600081519050610b6f81610b49565b92915050565b600060208284031215610b8b57610b8a610819565b5b6000610b9984828501610b60565b91505092915050565b7f4e487b7100000000000000000000000000000000000000000000000000000000600052603260045260246000fd5b6000610bdc8261081e565b91507fffffffffffffffffffffffffffffffffffffffffffffffffffffffffffffffff821415610c0f57610c0e610a97565b5b60018201905091905056fea2646970667358221220883c0b888e455e7b8276f71793fdfabff3a9a86e4f5b60172ad8573d29f1212e64736f6c634300080c0033",
  "immutableReferences": {},
  "source": "//SPDX-License-Identifier: GPL-3.0\r\n\r\npragma solidity 0.8.12;\r\n\r\nimport \"./AuraToken.sol\";\r\n\r\ncontract AuraPrivate{\r\n    address public manager;\r\n    AuraToken public tokenContract;\r\n\r\n    address [] public privateGroup;\r\n    uint public firstTGE =3000 * 10**18;\r\n    uint public laterTGE =2000 * 10**18;\r\n    bool public firstTime = true;\r\n    \r\n    address public deposit ;\r\n\r\n    constructor(address _deposit,AuraToken _tokenContract,  address [] memory _privateGroup)\r\n    {\r\n        deposit = _deposit;\r\n        manager = msg.sender;\r\n        tokenContract= _tokenContract;\r\n        privateGroup = _privateGroup;\r\n    }\r\n\r\n       modifier onlyAdmin(){\r\n        require(msg.sender == manager);\r\n        _;\r\n    }\r\n\r\n    function getTokenContract() public onlyAdmin view returns(AuraToken)\r\n    {\r\n        return tokenContract;\r\n    }\r\n\r\n    function getPrivateGroup() public onlyAdmin view returns(address[] memory)\r\n    {\r\n        return privateGroup;\r\n    }\r\n\r\n    function burnCoin(uint amount) public onlyAdmin{\r\n        tokenContract.transfer(deposit , amount *10 **18);  \r\n    }\r\n\r\n    function transferCoinToPrivate() public onlyAdmin returns(bool)\r\n    {\r\n        if(firstTime == true)\r\n        {\r\n            for (uint i =0;i< privateGroup.length;i++)\r\n            {\r\n                tokenContract.transfer(privateGroup[i], firstTGE);\r\n            }\r\n            firstTime = false;\r\n        }\r\n        else \r\n        {\r\n            for (uint i =0;i< privateGroup.length;i++)\r\n            {\r\n                tokenContract.transfer(privateGroup[i], laterTGE);\r\n            }\r\n        }\r\n\r\n        return true;\r\n    }\r\n\r\n}",
  "sourcePath": "D:\\Project TanDa\\BlockChain\\IDO_Claim\\contracts\\AuraPrivate.sol",
  "compiler": {
    "name": "solc",
    "version": "0.8.12+commit.f00d7308.Emscripten.clang"
  },
  "schemaVersion": "3.4.5",
  "updatedAt": "2022-02-20T15:05:52.550Z",
  "networkType": "ethereum",
  "devdoc": {
    "kind": "dev",
    "methods": {},
    "version": 1
  },
  "userdoc": {
    "kind": "user",
    "methods": {},
    "version": 1
  }
}