{
  "contractName": "AuraClaimIDO",
  "abi": [
    {
      "inputs": [
        {
          "internalType": "address",
          "name": "_deposit",
          "type": "address"
        },
        {
          "internalType": "contract AuraToken",
          "name": "_tokenContract",
          "type": "address"
        },
        {
          "internalType": "address[]",
          "name": "_contributors",
          "type": "address[]"
        }
      ],
      "stateMutability": "nonpayable",
      "type": "constructor"
    },
    {
      "inputs": [],
      "name": "canClaim",
      "outputs": [
        {
          "internalType": "uint256",
          "name": "",
          "type": "uint256"
        }
      ],
      "stateMutability": "view",
      "type": "function",
      "constant": true
    },
    {
      "inputs": [
        {
          "internalType": "uint256",
          "name": "",
          "type": "uint256"
        }
      ],
      "name": "contributors",
      "outputs": [
        {
          "internalType": "address",
          "name": "",
          "type": "address"
        }
      ],
      "stateMutability": "view",
      "type": "function",
      "constant": true
    },
    {
      "inputs": [
        {
          "internalType": "address",
          "name": "",
          "type": "address"
        }
      ],
      "name": "contributorsMapping",
      "outputs": [
        {
          "internalType": "bool",
          "name": "",
          "type": "bool"
        }
      ],
      "stateMutability": "view",
      "type": "function",
      "constant": true
    },
    {
      "inputs": [],
      "name": "deposit",
      "outputs": [
        {
          "internalType": "address",
          "name": "",
          "type": "address"
        }
      ],
      "stateMutability": "view",
      "type": "function",
      "constant": true
    },
    {
      "inputs": [],
      "name": "firstClaim",
      "outputs": [
        {
          "internalType": "bool",
          "name": "",
          "type": "bool"
        }
      ],
      "stateMutability": "view",
      "type": "function",
      "constant": true
    },
    {
      "inputs": [],
      "name": "firstTGE",
      "outputs": [
        {
          "internalType": "uint256",
          "name": "",
          "type": "uint256"
        }
      ],
      "stateMutability": "view",
      "type": "function",
      "constant": true
    },
    {
      "inputs": [],
      "name": "laterTGE",
      "outputs": [
        {
          "internalType": "uint256",
          "name": "",
          "type": "uint256"
        }
      ],
      "stateMutability": "view",
      "type": "function",
      "constant": true
    },
    {
      "inputs": [],
      "name": "manager",
      "outputs": [
        {
          "internalType": "address",
          "name": "",
          "type": "address"
        }
      ],
      "stateMutability": "view",
      "type": "function",
      "constant": true
    },
    {
      "inputs": [],
      "name": "tokenContract",
      "outputs": [
        {
          "internalType": "contract AuraToken",
          "name": "",
          "type": "address"
        }
      ],
      "stateMutability": "view",
      "type": "function",
      "constant": true
    },
    {
      "inputs": [],
      "name": "getTokenContract",
      "outputs": [
        {
          "internalType": "contract AuraToken",
          "name": "",
          "type": "address"
        }
      ],
      "stateMutability": "view",
      "type": "function",
      "constant": true
    },
    {
      "inputs": [],
      "name": "getContributors",
      "outputs": [
        {
          "internalType": "address[]",
          "name": "",
          "type": "address[]"
        }
      ],
      "stateMutability": "view",
      "type": "function",
      "constant": true
    },
    {
      "inputs": [
        {
          "internalType": "address",
          "name": "check",
          "type": "address"
        }
      ],
      "name": "isWhitelist",
      "outputs": [
        {
          "internalType": "uint256",
          "name": "",
          "type": "uint256"
        }
      ],
      "stateMutability": "view",
      "type": "function",
      "constant": true
    },
    {
      "inputs": [],
      "name": "initSetIDO",
      "outputs": [],
      "stateMutability": "nonpayable",
      "type": "function"
    },
    {
      "inputs": [],
      "name": "resetClaim",
      "outputs": [],
      "stateMutability": "nonpayable",
      "type": "function"
    },
    {
      "inputs": [
        {
          "internalType": "uint256",
          "name": "amount",
          "type": "uint256"
        }
      ],
      "name": "burnCoin",
      "outputs": [],
      "stateMutability": "nonpayable",
      "type": "function"
    },
    {
      "inputs": [],
      "name": "claim",
      "outputs": [
        {
          "internalType": "bool",
          "name": "",
          "type": "bool"
        }
      ],
      "stateMutability": "nonpayable",
      "type": "function"
    }
  ],
  "bytecode": "0x60806040526000600555686c6b935b8bbd400000600655681b1ae4d6e2ef5000006007556001600860006101000a81548160ff0219169083151502179055503480156200004b57600080fd5b50604051620015bf380380620015bf833981810160405281019062000071919062000436565b826000806101000a81548173ffffffffffffffffffffffffffffffffffffffff021916908373ffffffffffffffffffffffffffffffffffffffff16021790555033600360006101000a81548173ffffffffffffffffffffffffffffffffffffffff021916908373ffffffffffffffffffffffffffffffffffffffff16021790555081600160006101000a81548173ffffffffffffffffffffffffffffffffffffffff021916908373ffffffffffffffffffffffffffffffffffffffff16021790555080600290805190602001906200014b92919062000155565b50505050620004b1565b828054828255906000526020600020908101928215620001d1579160200282015b82811115620001d05782518260006101000a81548173ffffffffffffffffffffffffffffffffffffffff021916908373ffffffffffffffffffffffffffffffffffffffff1602179055509160200191906001019062000176565b5b509050620001e09190620001e4565b5090565b5b80821115620001ff576000816000905550600101620001e5565b5090565b6000604051905090565b600080fd5b600080fd5b600073ffffffffffffffffffffffffffffffffffffffff82169050919050565b6000620002448262000217565b9050919050565b620002568162000237565b81146200026257600080fd5b50565b60008151905062000276816200024b565b92915050565b6000620002898262000237565b9050919050565b6200029b816200027c565b8114620002a757600080fd5b50565b600081519050620002bb8162000290565b92915050565b600080fd5b6000601f19601f8301169050919050565b7f4e487b7100000000000000000000000000000000000000000000000000000000600052604160045260246000fd5b6200031182620002c6565b810181811067ffffffffffffffff82111715620003335762000332620002d7565b5b80604052505050565b60006200034862000203565b905062000356828262000306565b919050565b600067ffffffffffffffff821115620003795762000378620002d7565b5b602082029050602081019050919050565b600080fd5b6000620003a6620003a0846200035b565b6200033c565b90508083825260208201905060208402830185811115620003cc57620003cb6200038a565b5b835b81811015620003f95780620003e4888262000265565b845260208401935050602081019050620003ce565b5050509392505050565b600082601f8301126200041b576200041a620002c1565b5b81516200042d8482602086016200038f565b91505092915050565b6000806000606084860312156200045257620004516200020d565b5b6000620004628682870162000265565b93505060206200047586828701620002aa565b925050604084015167ffffffffffffffff81111562000499576200049862000212565b5b620004a78682870162000403565b9150509250925092565b6110fe80620004c16000396000f3fe608060405234801561001057600080fd5b50600436106101005760003560e01c80636dc7a62711610097578063af157c1911610066578063af157c1914610267578063c683630d14610285578063d0e30db0146102b5578063dcc55ffa146102d357610100565b80636dc7a627146101f15780637ce543701461020f5780637efd9b5b1461022d578063a3262e571461024b57610100565b8063481c6a75116100d3578063481c6a751461018d5780634e71d92d146101ab578063553ea3e9146101c957806355a373d6146101d357610100565b806328b7bede146101055780632c329295146101235780633cb5d100146101535780634003707414610183575b600080fd5b61010d6102f1565b60405161011a9190610c70565b60405180910390f35b61013d60048036038101906101389190610cce565b610375565b60405161014a9190610d16565b60405180910390f35b61016d60048036038101906101689190610d67565b610395565b60405161017a9190610da3565b60405180910390f35b61018b6103d4565b005b6101956104ea565b6040516101a29190610da3565b60405180910390f35b6101b3610510565b6040516101c09190610d16565b60405180910390f35b6101d16107b1565b005b6101db6108fb565b6040516101e89190610c70565b60405180910390f35b6101f9610921565b6040516102069190610dcd565b60405180910390f35b610217610927565b6040516102249190610d16565b60405180910390f35b61023561093a565b6040516102429190610dcd565b60405180910390f35b61026560048036038101906102609190610d67565b610940565b005b61026f610a71565b60405161027c9190610ea6565b60405180910390f35b61029f600480360381019061029a9190610cce565b610b59565b6040516102ac9190610dcd565b60405180910390f35b6102bd610bc7565b6040516102ca9190610da3565b60405180910390f35b6102db610beb565b6040516102e89190610dcd565b60405180910390f35b6000600360009054906101000a900473ffffffffffffffffffffffffffffffffffffffff1673ffffffffffffffffffffffffffffffffffffffff163373ffffffffffffffffffffffffffffffffffffffff161461034d57600080fd5b600160009054906101000a900473ffffffffffffffffffffffffffffffffffffffff16905090565b60046020528060005260406000206000915054906101000a900460ff1681565b600281815481106103a557600080fd5b906000526020600020016000915054906101000a900473ffffffffffffffffffffffffffffffffffffffff1681565b600360009054906101000a900473ffffffffffffffffffffffffffffffffffffffff1673ffffffffffffffffffffffffffffffffffffffff163373ffffffffffffffffffffffffffffffffffffffff161461042e57600080fd5b60005b6002805490508110156104e7576001600460006002848154811061045857610457610ec8565b5b9060005260206000200160009054906101000a900473ffffffffffffffffffffffffffffffffffffffff1673ffffffffffffffffffffffffffffffffffffffff1673ffffffffffffffffffffffffffffffffffffffff16815260200190815260200160002060006101000a81548160ff02191690831515021790555080806104df90610f26565b915050610431565b50565b600360009054906101000a900473ffffffffffffffffffffffffffffffffffffffff1681565b6000600160055414610557576040517f08c379a000000000000000000000000000000000000000000000000000000000815260040161054e90610fcc565b60405180910390fd5b60011515600460003373ffffffffffffffffffffffffffffffffffffffff1673ffffffffffffffffffffffffffffffffffffffff16815260200190815260200160002060009054906101000a900460ff161515146105ea576040517f08c379a00000000000000000000000000000000000000000000000000000000081526004016105e190610fcc565b60405180910390fd5b60011515600860009054906101000a900460ff16151514156106ae57600160009054906101000a900473ffffffffffffffffffffffffffffffffffffffff1673ffffffffffffffffffffffffffffffffffffffff1663a9059cbb336006546040518363ffffffff1660e01b8152600401610665929190610fec565b6020604051808303816000875af1158015610684573d6000803e3d6000fd5b505050506040513d601f19601f820116820180604052508101906106a89190611041565b50610752565b600160009054906101000a900473ffffffffffffffffffffffffffffffffffffffff1673ffffffffffffffffffffffffffffffffffffffff1663a9059cbb336007546040518363ffffffff1660e01b815260040161070d929190610fec565b6020604051808303816000875af115801561072c573d6000803e3d6000fd5b505050506040513d601f19601f820116820180604052508101906107509190611041565b505b6000600460003373ffffffffffffffffffffffffffffffffffffffff1673ffffffffffffffffffffffffffffffffffffffff16815260200190815260200160002060006101000a81548160ff0219169083151502179055506001905090565b600360009054906101000a900473ffffffffffffffffffffffffffffffffffffffff1673ffffffffffffffffffffffffffffffffffffffff163373ffffffffffffffffffffffffffffffffffffffff161461080b57600080fd5b600060055414156108235760016005819055506108f9565b6000600860006101000a81548160ff02191690831515021790555060005b6002805490508110156108f7576001600460006002848154811061086857610867610ec8565b5b9060005260206000200160009054906101000a900473ffffffffffffffffffffffffffffffffffffffff1673ffffffffffffffffffffffffffffffffffffffff1673ffffffffffffffffffffffffffffffffffffffff16815260200190815260200160002060006101000a81548160ff02191690831515021790555080806108ef90610f26565b915050610841565b505b565b600160009054906101000a900473ffffffffffffffffffffffffffffffffffffffff1681565b60055481565b600860009054906101000a900460ff1681565b60075481565b600360009054906101000a900473ffffffffffffffffffffffffffffffffffffffff1673ffffffffffffffffffffffffffffffffffffffff163373ffffffffffffffffffffffffffffffffffffffff161461099a57600080fd5b600160009054906101000a900473ffffffffffffffffffffffffffffffffffffffff1673ffffffffffffffffffffffffffffffffffffffff1663a9059cbb60008054906101000a900473ffffffffffffffffffffffffffffffffffffffff16670de0b6b3a764000084610a0d919061106e565b6040518363ffffffff1660e01b8152600401610a2a929190610fec565b6020604051808303816000875af1158015610a49573d6000803e3d6000fd5b505050506040513d601f19601f82011682018060405250810190610a6d9190611041565b5050565b6060600360009054906101000a900473ffffffffffffffffffffffffffffffffffffffff1673ffffffffffffffffffffffffffffffffffffffff163373ffffffffffffffffffffffffffffffffffffffff1614610acd57600080fd5b6002805480602002602001604051908101604052809291908181526020018280548015610b4f57602002820191906000526020600020905b8160009054906101000a900473ffffffffffffffffffffffffffffffffffffffff1673ffffffffffffffffffffffffffffffffffffffff1681526020019060010190808311610b05575b5050505050905090565b600060011515600460008473ffffffffffffffffffffffffffffffffffffffff1673ffffffffffffffffffffffffffffffffffffffff16815260200190815260200160002060009054906101000a900460ff1615151415610bbd5760019050610bc2565b600090505b919050565b60008054906101000a900473ffffffffffffffffffffffffffffffffffffffff1681565b60065481565b600073ffffffffffffffffffffffffffffffffffffffff82169050919050565b6000819050919050565b6000610c36610c31610c2c84610bf1565b610c11565b610bf1565b9050919050565b6000610c4882610c1b565b9050919050565b6000610c5a82610c3d565b9050919050565b610c6a81610c4f565b82525050565b6000602082019050610c856000830184610c61565b92915050565b600080fd5b6000610c9b82610bf1565b9050919050565b610cab81610c90565b8114610cb657600080fd5b50565b600081359050610cc881610ca2565b92915050565b600060208284031215610ce457610ce3610c8b565b5b6000610cf284828501610cb9565b91505092915050565b60008115159050919050565b610d1081610cfb565b82525050565b6000602082019050610d2b6000830184610d07565b92915050565b6000819050919050565b610d4481610d31565b8114610d4f57600080fd5b50565b600081359050610d6181610d3b565b92915050565b600060208284031215610d7d57610d7c610c8b565b5b6000610d8b84828501610d52565b91505092915050565b610d9d81610c90565b82525050565b6000602082019050610db86000830184610d94565b92915050565b610dc781610d31565b82525050565b6000602082019050610de26000830184610dbe565b92915050565b600081519050919050565b600082825260208201905092915050565b6000819050602082019050919050565b610e1d81610c90565b82525050565b6000610e2f8383610e14565b60208301905092915050565b6000602082019050919050565b6000610e5382610de8565b610e5d8185610df3565b9350610e6883610e04565b8060005b83811015610e99578151610e808882610e23565b9750610e8b83610e3b565b925050600181019050610e6c565b5085935050505092915050565b60006020820190508181036000830152610ec08184610e48565b905092915050565b7f4e487b7100000000000000000000000000000000000000000000000000000000600052603260045260246000fd5b7f4e487b7100000000000000000000000000000000000000000000000000000000600052601160045260246000fd5b6000610f3182610d31565b91507fffffffffffffffffffffffffffffffffffffffffffffffffffffffffffffffff821415610f6457610f63610ef7565b5b600182019050919050565b600082825260208201905092915050565b7f43616e277420636c61696d000000000000000000000000000000000000000000600082015250565b6000610fb6600b83610f6f565b9150610fc182610f80565b602082019050919050565b60006020820190508181036000830152610fe581610fa9565b9050919050565b60006040820190506110016000830185610d94565b61100e6020830184610dbe565b9392505050565b61101e81610cfb565b811461102957600080fd5b50565b60008151905061103b81611015565b92915050565b60006020828403121561105757611056610c8b565b5b60006110658482850161102c565b91505092915050565b600061107982610d31565b915061108483610d31565b9250817fffffffffffffffffffffffffffffffffffffffffffffffffffffffffffffffff04831182151516156110bd576110bc610ef7565b5b82820290509291505056fea2646970667358221220a017545a01e768afc22d9d99869341ebd1d9d1463267d991296ce6dd5973a13f64736f6c634300080c0033",
  "immutableReferences": {},
  "source": "//SPDX-License-Identifier: GPL-3.0\r\n\r\npragma solidity 0.8.12;\r\n\r\nimport \"./AuraToken.sol\";\r\n\r\ncontract AuraClaimIDO{\r\n    \r\n    address public deposit;\r\n    AuraToken public tokenContract;\r\n    address[] public contributors;\r\n\r\n\r\n    address public manager ;\r\n    mapping(address => bool) public contributorsMapping;\r\n    uint public canClaim =0;\r\n    uint256 public firstTGE  = 2000*10**18;\r\n    uint256 public laterTGE = 500*10**18;\r\n    bool public firstClaim = true;\r\n   \r\n\r\n     constructor( address _deposit,AuraToken _tokenContract , address[] memory _contributors)\r\n        {\r\n            deposit =_deposit;\r\n            manager = msg.sender;\r\n            tokenContract = _tokenContract;         \r\n            contributors = _contributors;\r\n        }\r\n\r\n\r\n    modifier onlyAdmin(){\r\n        require(msg.sender == manager);\r\n        _;\r\n    }\r\n\r\n    function getTokenContract() public onlyAdmin view returns(AuraToken)\r\n    {\r\n        return tokenContract;\r\n    }\r\n\r\n    function getContributors() public onlyAdmin view returns(address[] memory)\r\n    {\r\n        return contributors;\r\n    }\r\n\r\n\r\n\r\n    function isWhitelist(address check) public view returns(uint)\r\n    {\r\n        if(contributorsMapping[check] == true) return 1;\r\n        else return 0;\r\n    }\r\n\r\n    function initSetIDO () public onlyAdmin{\r\n        for(uint i =0 ;i< contributors.length ;i++)\r\n        {\r\n            contributorsMapping[contributors[i]] = true;\r\n        }  \r\n    }\r\n\r\n    function resetClaim() public onlyAdmin{\r\n        if(canClaim ==0)\r\n        {\r\n            canClaim =1;   \r\n        }\r\n        else \r\n        {\r\n            firstClaim = false;\r\n            for(uint i =0 ;i< contributors.length ;i++)\r\n            {\r\n            contributorsMapping[contributors[i]] = true;\r\n            } \r\n        }\r\n    }\r\n\r\n    function burnCoin(uint amount) public onlyAdmin{\r\n         tokenContract.transfer(deposit , amount *10**18 );  \r\n    }\r\n\r\n    function claim() public returns(bool)\r\n    {\r\n        require(canClaim ==1,\"Can't claim\");\r\n        require(contributorsMapping[msg.sender] == true , \"Can't claim\");   \r\n        \r\n        if(firstClaim == true)\r\n        {\r\n            tokenContract.transfer(msg.sender , firstTGE);                     \r\n        }\r\n        else{\r\n            tokenContract.transfer(msg.sender , laterTGE);\r\n        }\r\n\r\n        contributorsMapping[msg.sender] = false;\r\n\r\n        return true;\r\n    }\r\n\r\n\r\n       \r\n       \r\n}\r\n",
  "sourcePath": "D:\\Project TanDa\\BlockChain\\IDO_Claim\\contracts\\AuraClaimIDO.sol",
  "compiler": {
    "name": "solc",
    "version": "0.8.12+commit.f00d7308.Emscripten.clang"
  },
  "schemaVersion": "3.4.5",
  "updatedAt": "2022-02-20T15:05:52.543Z",
  "networkType": "ethereum",
  "devdoc": {
    "kind": "dev",
    "methods": {},
    "version": 1
  },
  "userdoc": {
    "kind": "user",
    "methods": {},
    "version": 1
  }
}