{
  "contractName": "IDO",
  "abi": [
    {
      "inputs": [
        {
          "internalType": "address",
          "name": "_deposit",
          "type": "address"
        },
        {
          "internalType": "address[]",
          "name": "initWhitelist",
          "type": "address[]"
        }
      ],
      "stateMutability": "nonpayable",
      "type": "constructor"
    },
    {
      "inputs": [],
      "name": "canBuy",
      "outputs": [
        {
          "internalType": "uint256",
          "name": "",
          "type": "uint256"
        }
      ],
      "stateMutability": "view",
      "type": "function",
      "constant": true
    },
    {
      "inputs": [
        {
          "internalType": "uint256",
          "name": "",
          "type": "uint256"
        }
      ],
      "name": "contributor1",
      "outputs": [
        {
          "internalType": "address",
          "name": "",
          "type": "address"
        }
      ],
      "stateMutability": "view",
      "type": "function",
      "constant": true
    },
    {
      "inputs": [
        {
          "internalType": "uint256",
          "name": "",
          "type": "uint256"
        }
      ],
      "name": "contributor2",
      "outputs": [
        {
          "internalType": "address",
          "name": "",
          "type": "address"
        }
      ],
      "stateMutability": "view",
      "type": "function",
      "constant": true
    },
    {
      "inputs": [],
      "name": "count",
      "outputs": [
        {
          "internalType": "uint256",
          "name": "",
          "type": "uint256"
        }
      ],
      "stateMutability": "view",
      "type": "function",
      "constant": true
    },
    {
      "inputs": [],
      "name": "deposit",
      "outputs": [
        {
          "internalType": "address",
          "name": "",
          "type": "address"
        }
      ],
      "stateMutability": "view",
      "type": "function",
      "constant": true
    },
    {
      "inputs": [],
      "name": "hardcap",
      "outputs": [
        {
          "internalType": "uint256",
          "name": "",
          "type": "uint256"
        }
      ],
      "stateMutability": "view",
      "type": "function",
      "constant": true
    },
    {
      "inputs": [],
      "name": "manager",
      "outputs": [
        {
          "internalType": "address",
          "name": "",
          "type": "address"
        }
      ],
      "stateMutability": "view",
      "type": "function",
      "constant": true
    },
    {
      "inputs": [],
      "name": "raiseAmount",
      "outputs": [
        {
          "internalType": "uint256",
          "name": "",
          "type": "uint256"
        }
      ],
      "stateMutability": "view",
      "type": "function",
      "constant": true
    },
    {
      "inputs": [
        {
          "internalType": "uint256",
          "name": "",
          "type": "uint256"
        }
      ],
      "name": "whiteList",
      "outputs": [
        {
          "internalType": "address",
          "name": "",
          "type": "address"
        }
      ],
      "stateMutability": "view",
      "type": "function",
      "constant": true
    },
    {
      "inputs": [
        {
          "internalType": "address",
          "name": "",
          "type": "address"
        }
      ],
      "name": "whiteListMapping",
      "outputs": [
        {
          "internalType": "bool",
          "name": "",
          "type": "bool"
        }
      ],
      "stateMutability": "view",
      "type": "function",
      "constant": true
    },
    {
      "inputs": [
        {
          "internalType": "address",
          "name": "check",
          "type": "address"
        }
      ],
      "name": "isWhitelist",
      "outputs": [
        {
          "internalType": "uint256",
          "name": "",
          "type": "uint256"
        }
      ],
      "stateMutability": "view",
      "type": "function",
      "constant": true
    },
    {
      "inputs": [],
      "name": "changeStatus",
      "outputs": [
        {
          "internalType": "bool",
          "name": "",
          "type": "bool"
        }
      ],
      "stateMutability": "nonpayable",
      "type": "function"
    },
    {
      "inputs": [],
      "name": "enter",
      "outputs": [
        {
          "internalType": "bool",
          "name": "",
          "type": "bool"
        }
      ],
      "stateMutability": "payable",
      "type": "function",
      "payable": true
    },
    {
      "inputs": [],
      "name": "getWhiteList",
      "outputs": [
        {
          "internalType": "address[]",
          "name": "",
          "type": "address[]"
        }
      ],
      "stateMutability": "view",
      "type": "function",
      "constant": true
    },
    {
      "inputs": [],
      "name": "getContributor1",
      "outputs": [
        {
          "internalType": "address[]",
          "name": "",
          "type": "address[]"
        }
      ],
      "stateMutability": "view",
      "type": "function",
      "constant": true
    },
    {
      "inputs": [],
      "name": "getContributor2",
      "outputs": [
        {
          "internalType": "address[]",
          "name": "",
          "type": "address[]"
        }
      ],
      "stateMutability": "view",
      "type": "function",
      "constant": true
    }
  ],
  "bytecode": "0x6080604052683635c9adc5dea000006006556000600755600060085560006009553480156200002d57600080fd5b506040516200147b3803806200147b83398181016040528101906200005391906200025d565b33600460006101000a81548173ffffffffffffffffffffffffffffffffffffffff021916908373ffffffffffffffffffffffffffffffffffffffff16021790555081600560006101000a81548173ffffffffffffffffffffffffffffffffffffffff021916908373ffffffffffffffffffffffffffffffffffffffff1602179055508060009080519060200190620000ed929190620000f6565b50505062000397565b82805482825590600052602060002090810192821562000172579160200282015b82811115620001715782518260006101000a81548173ffffffffffffffffffffffffffffffffffffffff021916908373ffffffffffffffffffffffffffffffffffffffff1602179055509160200191906001019062000117565b5b50905062000181919062000185565b5090565b5b80821115620001a057600081600090555060010162000186565b5090565b6000620001bb620001b584620002eb565b620002b7565b90508083825260208201905082856020860282011115620001db57600080fd5b60005b858110156200020f5781620001f4888262000219565b845260208401935060208301925050600181019050620001de565b5050509392505050565b6000815190506200022a816200037d565b92915050565b600082601f8301126200024257600080fd5b815162000254848260208601620001a4565b91505092915050565b600080604083850312156200027157600080fd5b6000620002818582860162000219565b925050602083015167ffffffffffffffff8111156200029f57600080fd5b620002ad8582860162000230565b9150509250929050565b6000604051905081810181811067ffffffffffffffff82111715620002e157620002e06200034e565b5b8060405250919050565b600067ffffffffffffffff8211156200030957620003086200034e565b5b602082029050602081019050919050565b600062000327826200032e565b9050919050565b600073ffffffffffffffffffffffffffffffffffffffff82169050919050565b7f4e487b7100000000000000000000000000000000000000000000000000000000600052604160045260246000fd5b62000388816200031a565b81146200039457600080fd5b50565b6110d480620003a76000396000f3fe6080604052600436106100f35760003560e01c80638e2042d61161008a578063d0e30db011610059578063d0e30db014610356578063db638f0b14610381578063e97dcb62146103ac578063ff65226c146103ca576100f3565b80638e2042d614610286578063b071cbe6146102b1578063c683630d146102dc578063cac7440114610319576100f3565b80633a7f4e63116100c65780633a7f4e63146101a4578063481c6a75146101e15780635c475d421461020c5780636ccddcf214610249576100f3565b806306661abd146100f8578063085634ec1461012357806309a9d76c1461014e57806310ab3b8a14610179575b600080fd5b34801561010457600080fd5b5061010d6103f5565b60405161011a9190610ef5565b60405180910390f35b34801561012f57600080fd5b506101386103fb565b6040516101459190610e7a565b60405180910390f35b34801561015a57600080fd5b50610163610569565b6040516101709190610e58565b60405180910390f35b34801561018557600080fd5b5061018e610651565b60405161019b9190610e58565b60405180910390f35b3480156101b057600080fd5b506101cb60048036038101906101c69190610c79565b610739565b6040516101d89190610e7a565b60405180910390f35b3480156101ed57600080fd5b506101f6610759565b6040516102039190610e3d565b60405180910390f35b34801561021857600080fd5b50610233600480360381019061022e9190610ca2565b61077f565b6040516102409190610e3d565b60405180910390f35b34801561025557600080fd5b50610270600480360381019061026b9190610ca2565b6107be565b60405161027d9190610e3d565b60405180910390f35b34801561029257600080fd5b5061029b6107fd565b6040516102a89190610e58565b60405180910390f35b3480156102bd57600080fd5b506102c66108e5565b6040516102d39190610ef5565b60405180910390f35b3480156102e857600080fd5b5061030360048036038101906102fe9190610c79565b6108eb565b6040516103109190610ef5565b60405180910390f35b34801561032557600080fd5b50610340600480360381019061033b9190610ca2565b610952565b60405161034d9190610e3d565b60405180910390f35b34801561036257600080fd5b5061036b610991565b6040516103789190610e3d565b60405180910390f35b34801561038d57600080fd5b506103966109b7565b6040516103a39190610ef5565b60405180910390f35b6103b46109bd565b6040516103c19190610e7a565b60405180910390f35b3480156103d657600080fd5b506103df610c49565b6040516103ec9190610ef5565b60405180910390f35b60085481565b6000600460009054906101000a900473ffffffffffffffffffffffffffffffffffffffff1673ffffffffffffffffffffffffffffffffffffffff163373ffffffffffffffffffffffffffffffffffffffff161461045757600080fd5b6000600954141561054d57600160098190555060005b6000805490508110156105475760018060008084815481106104b8577f4e487b7100000000000000000000000000000000000000000000000000000000600052603260045260246000fd5b9060005260206000200160009054906101000a900473ffffffffffffffffffffffffffffffffffffffff1673ffffffffffffffffffffffffffffffffffffffff1673ffffffffffffffffffffffffffffffffffffffff16815260200190815260200160002060006101000a81548160ff021916908315150217905550808061053f90610ff8565b91505061046d565b50610562565b600160095414156105615760006009819055505b5b6001905090565b6060600460009054906101000a900473ffffffffffffffffffffffffffffffffffffffff1673ffffffffffffffffffffffffffffffffffffffff163373ffffffffffffffffffffffffffffffffffffffff16146105c557600080fd5b600080548060200260200160405190810160405280929190818152602001828054801561064757602002820191906000526020600020905b8160009054906101000a900473ffffffffffffffffffffffffffffffffffffffff1673ffffffffffffffffffffffffffffffffffffffff16815260200190600101908083116105fd575b5050505050905090565b6060600460009054906101000a900473ffffffffffffffffffffffffffffffffffffffff1673ffffffffffffffffffffffffffffffffffffffff163373ffffffffffffffffffffffffffffffffffffffff16146106ad57600080fd5b600380548060200260200160405190810160405280929190818152602001828054801561072f57602002820191906000526020600020905b8160009054906101000a900473ffffffffffffffffffffffffffffffffffffffff1673ffffffffffffffffffffffffffffffffffffffff16815260200190600101908083116106e5575b5050505050905090565b60016020528060005260406000206000915054906101000a900460ff1681565b600460009054906101000a900473ffffffffffffffffffffffffffffffffffffffff1681565b6000818154811061078f57600080fd5b906000526020600020016000915054906101000a900473ffffffffffffffffffffffffffffffffffffffff1681565b600381815481106107ce57600080fd5b906000526020600020016000915054906101000a900473ffffffffffffffffffffffffffffffffffffffff1681565b6060600460009054906101000a900473ffffffffffffffffffffffffffffffffffffffff1673ffffffffffffffffffffffffffffffffffffffff163373ffffffffffffffffffffffffffffffffffffffff161461085957600080fd5b60028054806020026020016040519081016040528092919081815260200182805480156108db57602002820191906000526020600020905b8160009054906101000a900473ffffffffffffffffffffffffffffffffffffffff1673ffffffffffffffffffffffffffffffffffffffff1681526020019060010190808311610891575b5050505050905090565b60065481565b6000600160008373ffffffffffffffffffffffffffffffffffffffff1673ffffffffffffffffffffffffffffffffffffffff16815260200190815260200160002060009054906101000a900460ff1615610948576001905061094d565b600090505b919050565b6002818154811061096257600080fd5b906000526020600020016000915054906101000a900473ffffffffffffffffffffffffffffffffffffffff1681565b600560009054906101000a900473ffffffffffffffffffffffffffffffffffffffff1681565b60075481565b6000600160095414610a04576040517f08c379a00000000000000000000000000000000000000000000000000000000081526004016109fb90610ed5565b60405180910390fd5b60011515600160003373ffffffffffffffffffffffffffffffffffffffff1673ffffffffffffffffffffffffffffffffffffffff16815260200190815260200160002060009054906101000a900460ff16151514610a97576040517f08c379a0000000000000000000000000000000000000000000000000000000008152600401610a8e90610e95565b60405180910390fd5b670de0b6b3a76400003414610ae1576040517f08c379a0000000000000000000000000000000000000000000000000000000008152600401610ad890610eb5565b60405180910390fd5b61019060085411610b54576002339080600181540180825580915050600190039060005260206000200160009091909190916101000a81548173ffffffffffffffffffffffffffffffffffffffff021916908373ffffffffffffffffffffffffffffffffffffffff160217905550610bb8565b6003339080600181540180825580915050600190039060005260206000200160009091909190916101000a81548173ffffffffffffffffffffffffffffffffffffffff021916908373ffffffffffffffffffffffffffffffffffffffff1602179055505b600560009054906101000a900473ffffffffffffffffffffffffffffffffffffffff1673ffffffffffffffffffffffffffffffffffffffff166108fc349081150290604051600060405180830381858888f19350505050158015610c20573d6000803e3d6000fd5b50670de0b6b3a764000060076000828254610c3b9190610f5a565b925050819055506001905090565b60095481565b600081359050610c5e81611070565b92915050565b600081359050610c7381611087565b92915050565b600060208284031215610c8b57600080fd5b6000610c9984828501610c4f565b91505092915050565b600060208284031215610cb457600080fd5b6000610cc284828501610c64565b91505092915050565b6000610cd78383610ce3565b60208301905092915050565b610cec81610fb0565b82525050565b610cfb81610fb0565b82525050565b6000610d0c82610f20565b610d168185610f38565b9350610d2183610f10565b8060005b83811015610d52578151610d398882610ccb565b9750610d4483610f2b565b925050600181019050610d25565b5085935050505092915050565b610d6881610fc2565b82525050565b6000610d7b601883610f49565b91507f596f7520617265206e6f7420696e2077686974656c69737400000000000000006000830152602082019050919050565b6000610dbb601283610f49565b91507f446f6e277420656e6f756768203120424e4200000000000000000000000000006000830152602082019050919050565b6000610dfb600983610f49565b91507f43616e27742062757900000000000000000000000000000000000000000000006000830152602082019050919050565b610e3781610fee565b82525050565b6000602082019050610e526000830184610cf2565b92915050565b60006020820190508181036000830152610e728184610d01565b905092915050565b6000602082019050610e8f6000830184610d5f565b92915050565b60006020820190508181036000830152610eae81610d6e565b9050919050565b60006020820190508181036000830152610ece81610dae565b9050919050565b60006020820190508181036000830152610eee81610dee565b9050919050565b6000602082019050610f0a6000830184610e2e565b92915050565b6000819050602082019050919050565b600081519050919050565b6000602082019050919050565b600082825260208201905092915050565b600082825260208201905092915050565b6000610f6582610fee565b9150610f7083610fee565b9250827fffffffffffffffffffffffffffffffffffffffffffffffffffffffffffffffff03821115610fa557610fa4611041565b5b828201905092915050565b6000610fbb82610fce565b9050919050565b60008115159050919050565b600073ffffffffffffffffffffffffffffffffffffffff82169050919050565b6000819050919050565b600061100382610fee565b91507fffffffffffffffffffffffffffffffffffffffffffffffffffffffffffffffff82141561103657611035611041565b5b600182019050919050565b7f4e487b7100000000000000000000000000000000000000000000000000000000600052601160045260246000fd5b61107981610fb0565b811461108457600080fd5b50565b61109081610fee565b811461109b57600080fd5b5056fea26469706673582212205dc8c07e19169cd43a0826b23f741336028764f82760c052f3713e31273bbdb264736f6c63430008000033",
  "immutableReferences": {},
  "source": "//SPDX-License-Identifier: GPL-3.0\r\n\r\npragma solidity  ^0.8.0;\r\n\r\ncontract IDO{\r\n\r\n    address [] public whiteList;\r\n    mapping(address=>bool) public whiteListMapping;\r\n    address [] public contributor1;\r\n    address [] public contributor2;\r\n    address public manager ; \r\n    address public deposit;\r\n\r\n    uint public hardcap = 1000 ether;\r\n    uint public raiseAmount =0;\r\n    uint public count =0;\r\n    uint public canBuy =0;\r\n\r\n    constructor(address _deposit , address [] memory initWhitelist)\r\n    {\r\n        manager = msg.sender;\r\n        deposit = _deposit;\r\n        whiteList = initWhitelist;\r\n    }\r\n\r\n    modifier onlyAdmin(){\r\n        require(msg.sender == manager);\r\n        _;\r\n    }\r\n\r\n    function isWhitelist(address check) public view returns(uint)\r\n    {\r\n        if(whiteListMapping[check]) return 1;\r\n        return 0;\r\n    }\r\n\r\n    function changeStatus() public onlyAdmin returns(bool)\r\n    {\r\n         if(canBuy ==0)\r\n        {\r\n            canBuy =1;\r\n            for(uint i =0;i<whiteList.length ;i++)\r\n            {\r\n                whiteListMapping[whiteList[i]] = true;\r\n            }\r\n          \r\n        }\r\n        else if(canBuy ==1) canBuy =0;\r\n        return true;\r\n    }\r\n\r\n    function enter() public payable returns(bool)\r\n    {\r\n        require(canBuy ==1 ,\"Can't buy\");\r\n        require( whiteListMapping[msg.sender] == true ,\"You are not in whitelist\");\r\n        require(msg.value == 1 ether,\"Don't enough 1 BNB\");\r\n\r\n        if(count <= 400)\r\n        {\r\n            contributor1.push(msg.sender);    \r\n        }\r\n        else \r\n        {\r\n            contributor2.push(msg.sender);    \r\n        }\r\n      \r\n\r\n         payable(deposit).transfer(msg.value);\r\n         raiseAmount += 1 ether;\r\n\r\n        return true;\r\n    }\r\n\r\n    function getWhiteList() public onlyAdmin view returns(address[] memory)  {\r\n        return whiteList;\r\n    }\r\n\r\n    function getContributor1() public onlyAdmin view returns(address[] memory)  {\r\n        return contributor1;\r\n    }\r\n\r\n    function getContributor2() public onlyAdmin view returns(address[] memory)  {\r\n        return contributor2;\r\n    }\r\n\r\n}",
  "sourcePath": "D:\\Project TanDa\\BlockChain\\IDO_Whitelist\\contracts\\IDO.sol",
  "compiler": {
    "name": "solc",
    "version": "0.8.0+commit.c7dfd78e.Emscripten.clang"
  },
  "schemaVersion": "3.4.5",
  "updatedAt": "2022-02-20T04:20:44.274Z",
  "networkType": "ethereum",
  "devdoc": {
    "kind": "dev",
    "methods": {},
    "version": 1
  },
  "userdoc": {
    "kind": "user",
    "methods": {},
    "version": 1
  }
}